{
  "contractName": "PeeToken",
  "abi": [
    {
      "inputs": [],
      "payable": false,
      "stateMutability": "nonpayable",
      "type": "constructor"
    },
    {
      "constant": true,
      "inputs": [],
      "name": "totalSupply",
      "outputs": [
        {
          "internalType": "uint256",
          "name": "",
          "type": "uint256"
        }
      ],
      "payable": false,
      "stateMutability": "view",
      "type": "function"
    }
  ],
  "bytecode": "0x6080604052348015600f57600080fd5b50620668a06000819055506084806100286000396000f3fe6080604052348015600f57600080fd5b506004361060285760003560e01c806318160ddd14602d575b600080fd5b60336049565b6040518082815260200191505060405180910390f35b6000548156fea265627a7a72315820ff7968329501c75a08725185fe66644f5bc0c4298025c3be8fef82188d18235064736f6c63430005100032",
  "source": "pragma solidity ^0.5.16;\r\n\r\ncontract PeeToken {\r\n\tuint256 public totalSupply;\r\n\t\r\n\tconstructor() public {\r\n\t\ttotalSupply = 420000;\r\n\t}\r\n}",
  "sourcePath": "C:\\Users\\Sammo\\token_sale\\contracts\\PeeToken.sol",
  "compiler": {
    "name": "solc",
    "version": "0.5.16+commit.9c3226ce.Emscripten.clang"
  },
  "schemaVersion": "3.2.0",
  "updatedAt": "2020-06-10T06:07:59.700Z",
  "networkType": "ethereum",
  "devdoc": {
    "methods": {}
  },
  "userdoc": {
    "methods": {}
  }
}