{
  "contractName": "PeeTokenSale",
  "abi": [
    {
      "inputs": [
        {
          "internalType": "contract PeeToken",
          "name": "_tokenContract",
          "type": "address"
        },
        {
          "internalType": "uint256",
          "name": "_tokenPrice",
          "type": "uint256"
        }
      ],
      "payable": false,
      "stateMutability": "nonpayable",
      "type": "constructor"
    },
    {
      "anonymous": false,
      "inputs": [
        {
          "indexed": false,
          "internalType": "address",
          "name": "_buyer",
          "type": "address"
        },
        {
          "indexed": false,
          "internalType": "uint256",
          "name": "_amount",
          "type": "uint256"
        }
      ],
      "name": "Sell",
      "type": "event"
    },
    {
      "constant": true,
      "inputs": [],
      "name": "tokenContract",
      "outputs": [
        {
          "internalType": "contract PeeToken",
          "name": "",
          "type": "address"
        }
      ],
      "payable": false,
      "stateMutability": "view",
      "type": "function"
    },
    {
      "constant": true,
      "inputs": [],
      "name": "tokenPrice",
      "outputs": [
        {
          "internalType": "uint256",
          "name": "",
          "type": "uint256"
        }
      ],
      "payable": false,
      "stateMutability": "view",
      "type": "function"
    },
    {
      "constant": true,
      "inputs": [],
      "name": "tokensSold",
      "outputs": [
        {
          "internalType": "uint256",
          "name": "",
          "type": "uint256"
        }
      ],
      "payable": false,
      "stateMutability": "view",
      "type": "function"
    },
    {
      "constant": false,
      "inputs": [
        {
          "internalType": "uint256",
          "name": "_numberOfTokens",
          "type": "uint256"
        }
      ],
      "name": "buyTokens",
      "outputs": [],
      "payable": true,
      "stateMutability": "payable",
      "type": "function"
    },
    {
      "constant": false,
      "inputs": [],
      "name": "endSale",
      "outputs": [],
      "payable": false,
      "stateMutability": "nonpayable",
      "type": "function"
    }
  ],
  "bytecode": "0x608060405234801561001057600080fd5b506040516108433803806108438339818101604052604081101561003357600080fd5b810190808051906020019092919080519060200190929190505050336000806101000a81548173ffffffffffffffffffffffffffffffffffffffff021916908373ffffffffffffffffffffffffffffffffffffffff16021790555081600160006101000a81548173ffffffffffffffffffffffffffffffffffffffff021916908373ffffffffffffffffffffffffffffffffffffffff16021790555080600281905550505061075c806100e76000396000f3fe60806040526004361061004a5760003560e01c80633610724e1461004f578063380d831b1461007d578063518ab2a81461009457806355a373d6146100bf5780637ff9b59614610116575b600080fd5b61007b6004803603602081101561006557600080fd5b8101908080359060200190929190505050610141565b005b34801561008957600080fd5b506100926103f5565b005b3480156100a057600080fd5b506100a961069f565b6040518082815260200191505060405180910390f35b3480156100cb57600080fd5b506100d46106a5565b604051808273ffffffffffffffffffffffffffffffffffffffff1673ffffffffffffffffffffffffffffffffffffffff16815260200191505060405180910390f35b34801561012257600080fd5b5061012b6106cb565b6040518082815260200191505060405180910390f35b61014d816002546106d1565b341461015857600080fd5b80600160009054906101000a900473ffffffffffffffffffffffffffffffffffffffff1673ffffffffffffffffffffffffffffffffffffffff166370a08231306040518263ffffffff1660e01b8152600401808273ffffffffffffffffffffffffffffffffffffffff1673ffffffffffffffffffffffffffffffffffffffff16815260200191505060206040518083038186803b1580156101f857600080fd5b505afa15801561020c573d6000803e3d6000fd5b505050506040513d602081101561022257600080fd5b8101908080519060200190929190505050101561028a576040517f08c379a000000000000000000000000000000000000000000000000000000000815260040180806020018281038252602a8152602001806106fe602a913960400191505060405180910390fd5b600160009054906101000a900473ffffffffffffffffffffffffffffffffffffffff1673ffffffffffffffffffffffffffffffffffffffff1663a9059cbb33836040518363ffffffff1660e01b8152600401808373ffffffffffffffffffffffffffffffffffffffff1673ffffffffffffffffffffffffffffffffffffffff16815260200182815260200192505050602060405180830381600087803b15801561033357600080fd5b505af1158015610347573d6000803e3d6000fd5b505050506040513d602081101561035d57600080fd5b810190808051906020019092919050505061037757600080fd5b806003600082825401925050819055507f5e5e995ce3133561afceaa51a9a154d5db228cd7525d34df5185582c18d3df093382604051808373ffffffffffffffffffffffffffffffffffffffff1673ffffffffffffffffffffffffffffffffffffffff1681526020018281526020019250505060405180910390a150565b6000809054906101000a900473ffffffffffffffffffffffffffffffffffffffff1673ffffffffffffffffffffffffffffffffffffffff163373ffffffffffffffffffffffffffffffffffffffff161461044e57600080fd5b600160009054906101000a900473ffffffffffffffffffffffffffffffffffffffff1673ffffffffffffffffffffffffffffffffffffffff1663a9059cbb6000809054906101000a900473ffffffffffffffffffffffffffffffffffffffff16600160009054906101000a900473ffffffffffffffffffffffffffffffffffffffff1673ffffffffffffffffffffffffffffffffffffffff166370a08231306040518263ffffffff1660e01b8152600401808273ffffffffffffffffffffffffffffffffffffffff1673ffffffffffffffffffffffffffffffffffffffff16815260200191505060206040518083038186803b15801561054d57600080fd5b505afa158015610561573d6000803e3d6000fd5b505050506040513d602081101561057757600080fd5b81019080805190602001909291905050506040518363ffffffff1660e01b8152600401808373ffffffffffffffffffffffffffffffffffffffff1673ffffffffffffffffffffffffffffffffffffffff16815260200182815260200192505050602060405180830381600087803b1580156105f157600080fd5b505af1158015610605573d6000803e3d6000fd5b505050506040513d602081101561061b57600080fd5b810190808051906020019092919050505061063557600080fd5b6000809054906101000a900473ffffffffffffffffffffffffffffffffffffffff1673ffffffffffffffffffffffffffffffffffffffff166108fc479081150290604051600060405180830381858888f1935050505015801561069c573d6000803e3d6000fd5b50565b60035481565b600160009054906101000a900473ffffffffffffffffffffffffffffffffffffffff1681565b60025481565b6000808214806106ee57508282838502925082816106eb57fe5b04145b6106f757600080fd5b9291505056fe63616e6e6f74207075726368617365206d6f726520746f6b656e73207468616e20617661696c61626c65a265627a7a72315820360f95da3e562dbd41763e81295b685750611751fd5b140c8984f9c60b7448f164736f6c63430005100032",
  "source": "pragma solidity ^0.5.16;\r\n\r\nimport \"./PeeToken.sol\";\r\n\r\ncontract PeeTokenSale {\r\n\taddress payable admin;\r\n\tPeeToken public tokenContract;\r\n\tuint256 public tokenPrice;\r\n\tuint256 public tokensSold;\r\n\r\n\tevent Sell(address _buyer, uint256 _amount);\r\n\r\n\tconstructor(PeeToken _tokenContract, uint256 _tokenPrice) public {\r\n\t\t// Assign admin\r\n\t\tadmin = msg.sender;\r\n\t\ttokenContract = _tokenContract;\r\n\t\t// Token Contract\r\n\r\n\t\t// Token Price\r\n\t\ttokenPrice = _tokenPrice;\r\n\r\n\r\n\t}\r\n\r\n\t// multiply\r\n\tfunction multiply(uint x, uint y) internal pure returns (uint z) {\r\n\t\trequire(y == 0 || (z = x * y) / y == x);\r\n\t}\r\n\r\n\tfunction buyTokens(uint256 _numberOfTokens) public payable {\r\n\t\t// Require value is equal to tokens\r\n\t\trequire(msg.value == multiply(_numberOfTokens, tokenPrice));\r\n\t\t// Require that contract has enough tokens\r\n\t\trequire(tokenContract.balanceOf(address(this)) >= _numberOfTokens, 'cannot purchase more tokens than available');\r\n\t\t// Require that a transfer is successful\r\n\t\trequire(tokenContract.transfer(msg.sender, _numberOfTokens));\r\n\r\n\r\n\r\n\t\t// Keep track of tokensSold\r\n\t\ttokensSold += _numberOfTokens;\r\n\r\n\t\t// Trigger Sell Event\r\n\t\temit Sell(msg.sender, _numberOfTokens);\r\n\t}\r\n\r\n\t// End token sale\r\n\tfunction endSale() public {\r\n\t\t// Require admin\r\n\t\trequire(msg.sender == admin);\r\n\t\t// Transfer remaining tokens to admin\r\n\t\trequire(tokenContract.transfer(admin, tokenContract.balanceOf(address(this))));\r\n\t\t// destroy contract\r\n\t\tadmin.transfer(address(this).balance);\r\n\r\n\r\n\r\n\t}\r\n\r\n\r\n\r\n\r\n\r\n\t\r\n\r\n\r\n}",
  "sourcePath": "C:\\Users\\Sammo\\token_sale\\contracts\\PeeTokenSale.sol",
  "compiler": {
    "name": "solc",
    "version": "0.5.16+commit.9c3226ce.Emscripten.clang"
  },
  "schemaVersion": "3.2.0",
  "updatedAt": "2020-06-24T07:43:03.052Z",
  "devdoc": {
    "methods": {}
  },
  "userdoc": {
    "methods": {}
  }
}